:100000000C942A000C9434000C9434000C943400AA
:100010000C9434000C9434000C9434000C94340090
:100020000C9434000C9434000C9434000C94340080
:100030000C9434000C9434000C9434000C94340070
:100040000C9434000C9434000C9434000C94340060
:100050000C94340011241FBECFE5D8E0DEBFCDBF25
:100060000E9436000C9452000C9400008AB3816008
:100070008ABB8BB381608BBB2FEF89E698E121505F
:1000800080409040E1F700C000008BB38E7F8BBBB7
:100090002FEF89E698E1215080409040E1F700C0C1
:0800A0000000E7CFF894FFCF48
:00000001FF
