:100000000C942A000C9434000C9434000C943400AA
:100010000C9434000C9434000C9434000C94340090
:100020000C9434000C9434000C9434000C94340080
:100030000C9434000C9434000C9434000C94340070
:100040000C9434000C9434000C9434000C94340060
:100050000C94340011241FBECFE5D8E0DEBFCDBF25
:100060000E9436000C9486000C9400000E943B0015
:1000700080E090E0089520E00CC03AB381E090E089
:10008000022E02C0880F991F0A94E2F7832B8ABBC5
:100090002F5F283090F320E033C03BB3622F70E035
:1000A00081E090E0AC01022E02C0440F551F0A947B
:1000B000E2F7432B4BBB3BB3AB0141505109FC0171
:1000C00002C0EE0FFF1F4A95E2F7AF013E2B3BBB8C
:1000D0003BB36F5F7F4F02C0880F991F6A95E2F7AD
:1000E000832B8BBBFFEF39E688E1F1503040804035
:1000F000E1F700C000008BB3409548234BBB2F5F56
:10010000283058F28BB38F778BBBC5CFF894FFCFD5
:00000001FF
