S013000041737369676E6D656E74332E73726563C5
S11300000C942A000C943F000C943F000C943F0085
S11300100C943F000C943F000C943F000C943F0060
S11300200C943F000C943F000C943F000C943F0050
S11300300C943F000C943F000C943F000C943F0040
S11300400C943F000C943F000C943F000C943F0030
S11300500C943F0011241FBECFE5D8E0DEBFCDBF16
S113006010E0A0E6B0E0E6EAF4E002C005900D92EC
S1130070A637B107D9F70E94F9000C9451020C94E9
S11300800000EF92FF921F93CF93DF930097B9F58F
S113009082E040C0C12FD0E0CC0FDD1FCC0FDD1FAC
S11300A0CE0DDF1D698141E088810E9426018A818D
S11300B0883089F48B81893031F4698140E088810A
S11300C00E9498011AC08B3701F5698141E088814B
S11300D00E94980112C08D30D1F48B81893031F4A3
S11300E0698141E088810E94980107C08B3789F4B7
S11300F0698140E088810E9498011F5F03C07C01F0
S113010010E080E0133030F205C083E003C083E0E8
S113011001C083E0DF91CF911F91FF90EF9008958C
S1130120009791F0FC018281883031F4618140E0D4
S113013080810E94980108958D3041F4618141E0ED
S113014080810E949801089582E0089583E00895D3
S1130150009791F0FC018281883031F4618141E0A3
S113016080810E94980108958D3041F4618140E0BE
S113017080810E949801089582E0089583E00895A3
S1130180EF92FF921F93CF93DF930097B9F482E02D
S11301901AC0C12FD0E0CE01880F991FC80FD91FF4
S11301A0CE0DDF1D698140E088810E9426014A81CD
S11301B0698188810E9498011F5F03C07C0110E05F
S11301C080E0133030F3DF91CF911F91FF90EF90D7
S11301D00895009751F06115710549F0AB01FC01D8
S11301E0618180810E940A02089582E0089582E07C
S11301F00895CF93DF931F92CDB7DEB70E941D0100
S113020080E690E00E9441008CE690E00E94C000ED
S11302101982BE016F5F7F4F8FE690E00E94E90074
S11302208981811105C084E690E00E949000F1CF9D
S113023084E690E00E94A800ECCF8FEF8ABB87BBD6
S113024086E984BB81BB1BBA81E00895843008F041
S113025067C0683008F066C0423008F065C081307D
S1130260E9F030F0823081F1833009F443C05EC09C
S113027081E090E0062E02C0880F991F0A94E2F7ED
S113028080952AB32823842F90E002C0880F991FF9
S11302906A95E2F7822B8ABB81E0089521E030E081
S11302A0062E02C0220F331F0A94E2F7209587B36B
S11302B02823842F90E002C0880F991F6A95E2F7E3
S11302C0822B87BB81E0089521E030E0062E02C036
S11302D0220F331F0A94E2F7209584B32823842F36
S11302E090E002C0880F991F6A95E2F7822B84BBC5
S11302F081E0089521E030E0062E02C0220F331F72
S11303000A94E2F7209581B32823842F90E002C059
S1130310880F991F6A95E2F7822B81BB81E00895CB
S113032083E0089583E0089583E0089581E00895CB
S1130330843008F067C0683008F066C0423008F0C6
S113034065C08130E9F030F0823081F1833009F406
S113035043C05EC081E090E0062E02C0880F991F62
S11303600A94E2F780952BB32823842F90E002C0EF
S1130370880F991F6A95E2F7822B8BBB81E0089561
S113038021E030E0062E02C0220F331F0A94E2F768
S1130390209588B32823842F90E002C0880F991FEA
S11303A06A95E2F7822B88BB81E0089521E030E072
S11303B0062E02C0220F331F0A94E2F7209585B35C
S11303C02823842F90E002C0880F991F6A95E2F7D2
S11303D0822B85BB81E0089521E030E0062E02C027
S11303E0220F331F0A94E2F7209582B32823842F27
S11303F090E002C0880F991F6A95E2F7822B82BBB6
S113040081E0089583E0089583E0089583E00895EA
S113041081E0089541155105E1F18430E0F568303B
S1130420E0F5813091F028F08230D9F0833029F161
S113043036C089B390E002C0959587956A95E2F736
S11304408170FA01808381E0089586B390E002C050
S1130450959587956A95E2F78170FA01808381E02A
S1130460089583B390E002C0959587956A95E2F765
S11304708170FA01808381E0089580B390E002C026
S1130480959587956A95E2F78170FA01808381E0FA
S1130490089582E0089583E0089583E0089581E05B
S10904A00895F894FFCF5B
S11304A60005087B01020D0902010D7B000400030F
S10904B603010205010030
S9030000FC
