S012000043616C63756C61746F722E7372656308
S11300000C942A000C9447000C9447000C9447006D
S11300100C9447000C9447000C9447000C94470040
S11300200C9447000C9447000C9447000C94470030
S11300300C9447000C9447000C9447000C94470020
S11300400C9447000C9447000C9447000C94470010
S11300500C94470011241FBECFE5D8E0DEBFCDBF0E
S113006010E0A0E6B0E0EAECF0E202C005900D92E8
S1130070AC39B107D9F720E0ACE9B0E001C01D927A
S1130080AE39B207E1F70E94120B0C9463100C9482
S11300900000CF92DF92EF92FF920F931F93CF93C2
S11300A0DF93009709F045C082E048C0CF2DD0E02F
S11300B0CC0FDD1FC80120E1D29E800D911D1124BB
S11300C0C80FD91F698140E088810E94A20B698111
S11300D041E088810E94130CF39401C0F12C93E059
S11300E09F1520F7C12C20C02C2D30E07901EE0C97
S11300F0FF1CE801E0E1DE9EC00DD11D1124EC0ED1
S1130100FD1EF70161852C5F3F4F220F331FC20F85
S1130110D31F41E088810E94A20BF701618541E071
S113012088810E94130CC394F3E0FC15E8F6D39481
S113013003C08C01D12C81E0DD2081F2DF91CF91CD
S11301401F910F91FF90EF90DF90CF9008958F92C1
S11301509F92AF92BF92CF92DF92EF92FF920F9352
S11301601F93CF93DF931F92CDB7DEB7009709F4A7
S113017084C06115710509F482C05B018C01FB0127
S11301801082812C81E074C0E82CF12CF701EE0F71
S1130190FF1FE00FF11F6185F7013496EE0FFF1F7B
S11301A0E00FF11F40E080810E94130C912C4BC0A2
S11301B0C92CD12CF601EE0FFF1FE00FF11F618156
S11301C0AE014F5F5F4F80810E94840C8981811151
S11301D039C08FE097E20197F1F700C00000F60103
S11301E0EE0FFF1FE00FF11F6181AE014F5F5F4F04
S11301F080810E94840C9981911124C0EFE0F7E280
S11302003197F1F700C000000CC0F601EE0FFF1F9C
S1130210E00FF11F6181AE014F5F5F4F80810E944B
S1130220840C9981992389F39601220F331F220F9D
S1130230331F20593F4FF901EE0DFF1D9081F50149
S113024090831EC09394F3E0F91508F0B1CFF70141
S1130250EE0FFF1FE00FF11F6185F7013496EE0FDB
S1130260FF1FE00FF11F41E080810E94130C839473
S113027093E0981508F088CF03C082E001C082E0C3
S11302800F90DF91CF911F910F91FF90EF90DF902E
S1130290CF90BF90AF909F908F90089541E060E021
S11302A081E00E94A20B41E061E081E00E94A20B88
S11302B041E062E081E00E94A20B41E063E081E062
S11302C00E94A20B41E064E081E00E94A20B41E0A5
S11302D065E081E00E94A20B41E066E081E00E94BB
S11302E0A20B8FE59AEE0197F1F700C0000040E001
S11302F060E081E00E94130C40E061E081E00E9434
S1130300130C40E062E081E00E94130C40E063E0E3
S113031081E00E94130C40E064E081E00E94130C31
S113032041E065E081E00E94130C40E066E081E07A
S11303300E94130C41E062E081E00E94130CEFE1A3
S1130340FEE43197F1F700C0000040E062E081E094
S11303500E94130C8FE19EE40197F1F700C00000A6
S113036040E063E081E00E94130C40E064E081E03F
S11303700E94130C41E065E081E00E94130C40E010
S113038066E081E00E94130C41E062E081E00E949B
S1130390130CEFE1FEE43197F1F700C0000040E0F8
S11303A062E081E00E94130C8FE19EE40197F1F773
S11303B000C0000041E063E081E00E94130C40E0D3
S11303C064E081E00E94130C40E065E081E00E945B
S11303D0130C40E066E081E00E94130C41E062E00F
S11303E081E00E94130CEFE1FEE43197F1F700C0C5
S11303F0000040E062E081E00E94130C8FE19EE483
S11304000197F1F700C00000EFECF7E03197F1F746
S113041000C0000040E060E081E00E94130C40E076
S113042061E081E00E94130C40E062E081E00E9400
S1130430130C40E063E081E00E94130C40E064E0B0
S113044081E00E94130C40E065E081E00E94130CFF
S113045040E066E081E00E94130C41E062E081E04C
S11304600E94130C8FE19EE40197F1F700C0000095
S113047040E062E081E00E94130CEFE1FEE431977A
S1130480F1F700C0000041E063E081E00E94130C3A
S113049041E064E081E00E94130C41E065E081E00A
S11304A00E94130C41E066E081E00E94130C41E0DD
S11304B062E081E00E94130C8FE19EE40197F1F762
S11304C000C0000040E062E081E00E94130CEFE114
S11304D0FEE43197F1F700C000008FEC97E001973C
S11304E0F1F700C0000040E060E081E00E94130CDE
S11304F040E061E081E00E94130C40E062E081E0B2
S11305000E94130C40E063E081E00E94130C40E081
S113051064E081E00E94130C40E065E081E00E9409
S1130520130C40E066E081E00E94130C41E062E0BD
S113053081E00E94130CEFE1FEE43197F1F700C073
S1130540000040E062E081E00E94130C8FE19EE431
S11305500197F1F700C0000040E063E081E00E94F1
S1130560130C40E064E081E00E94130C40E065E07D
S113057081E00E94130C41E066E081E00E94130CCC
S113058041E062E081E00E94130CEFE1FEE4319768
S1130590F1F700C0000040E062E081E00E94130C2B
S11305A08FE19EE40197F1F700C00000EFE9FFE05E
S11305B03197F1F700C0000040E060E081E00E9464
S11305C0130C40E061E081E00E94130C40E062E023
S11305D081E00E94130C40E063E081E00E94130C70
S11305E040E064E081E00E94130C40E065E081E0BB
S11305F00E94130C40E066E081E00E94130C41E08D
S113060062E081E00E94130C8FE19EE40197F1F710
S113061000C0000040E062E081E00E94130CEFE1C2
S1130620FEE43197F1F700C0000040E063E081E0B0
S11306300E94130C41E064E081E00E94130C41E04D
S113064065E081E00E94130C40E066E081E00E94D6
S1130650130C41E062E081E00E94130C8FE19EE400
S11306600197F1F700C0000040E062E081E00E94E1
S1130670130CEFE1FEE43197F1F700C00000089598
S1130680FF920F931F93CF93DF93C82F40E060E056
S113069081E00E94130C40E061E081E00E94130CB1
S11306A040E062E081E00E94130CFC2EFF1CFF245A
S11306B0FF1C4F2D63E081E00E94130CC6FB002752
S11306C000F9402F64E081E00E94130CC5FB112760
S11306D010F9412F65E081E00E94130CC4FBDD2773
S11306E0D0F94D2F66E081E00E94130CC83251F519
S11306F041E062E081E00E94130C8FE19EE40197E7
S1130700F1F700C0000040E062E081E00E94130CB9
S11307108FE19EE40197F1F700C000004F2D63E0E4
S113072081E00E94130C402F64E081E00E94130CCE
S1130730412F65E081E00E94130C4D2F66E081E0BB
S11307400E94130C41E062E081E00E94130C8FE1EF
S11307509EE40197F1F700C0000040E062E081E010
S11307600E94130C8FE19EE40197F1F700C0000092
S1130770C3FB442740F963E081E00E94130CC2FBF1
S1130780442740F964E081E00E94130CC1FB442734
S113079040F965E081E00E94130C4C2F417066E043
S11307A081E00E94130C41E062E081E00E94130C9E
S11307B08FE19EE40197F1F700C0000040E062E0A1
S11307C081E00E94130C8FE19EE40197F1F700C0D1
S11307D0000080E0DF91CF911F910F91FF90089569
S11307E0CF93C82F41E060E081E00E94130C40E009
S11307F061E081E00E94130C40E062E081E00E942D
S1130800130C4C2F441F4427441F63E081E00E94D3
S1130810130CC6FB442740F964E081E00E94130CEA
S1130820C5FB442740F965E081E00E94130CC4FB3A
S1130830442740F966E081E00E94130C41E062E045
S113084081E00E94130C8FE19EE40197F1F700C050
S1130850000040E062E081E00E94130CEFE1FEE45E
S11308603197F1F700C00000C3FB442740F963E06F
S113087081E00E94130CC2FB442740F964E081E04C
S11308800E94130CC1FB442740F965E081E00E94FB
S1130890130C4C2F417066E081E00E94130C41E080
S11308A062E081E00E94130C8FE19EE40197F1F76E
S11308B000C0000040E062E081E00E94130CEFE120
S11308C0FEE43197F1F700C00000CF9108950F9333
S11308D01F93CF93DF93009709F077C082E07EC027
S11308E041E060E081E00E94130C40E061E081E0BF
S11308F00E94130C40E062E081E00E94130C4C2F34
S1130900441F4427441F63E081E00E94130CC6FB8C
S1130910442740F964E081E00E94130CC5FB44279E
S113092040F965E081E00E94130CC4FB442740F9C0
S113093066E081E00E94130C41E062E081E00E94E5
S1130940130C8FE19EE40197F1F700C0000040E032
S113095062E081E00E94130CEFE1FEE43197F1F7CD
S113096000C00000C3FB442740F963E081E00E941B
S1130970130CC2FB442740F964E081E00E94130C8D
S1130980C1FB442740F965E081E00E94130C4C2F21
S1130990417066E081E00E94130C41E062E081E076
S11309A00E94130C8FE19EE40197F1F700C0000050
S11309B040E062E081E00E94130CEFE1FEE4319735
S11309C0F1F700C00000DF5F03C08C01D0E081E0DC
S11309D0F801ED0FF11DC081C11182CFDF91CF91DC
S11309E01F910F9108952F923F924F925F926F92B1
S11309F07F928F929F92AF92BF92CF92DF92EF92AB
S1130A00FF920F931F93CF93DF93CDB7DEB7659714
S1130A100FB6F894DEBF0FBECDBF2B013C0120E022
S1130A2030E0A9010E94380D88230CF067C041E032
S1130A3060E081E00E94130C40E061E081E00E94EC
S1130A40130C40E062E081E00E94130C40E063E09C
S1130A5081E00E94130C40E064E081E00E94130CEA
S1130A6041E065E081E00E94130C40E066E081E033
S1130A700E94130C41E062E081E00E94130C8FE1BC
S1130A809EE40197F1F700C0000040E062E081E0DD
S1130A900E94130C8FE19EE40197F1F700C000005F
S1130AA041E063E081E00E94130C41E064E081E0F6
S1130AB00E94130C40E065E081E00E94130C41E0C9
S1130AC066E081E00E94130C41E062E081E00E9454
S1130AD0130C8FE19EE40197F1F700C0000040E0A1
S1130AE062E081E00E94130C8FE19EE40197F1F72C
S1130AF000C0000077FA709477F87094C301B201D3
S1130B000E94AF0DB22EC32ED42EE52EF62E072F43
S1130B10182F988729833A834B835C836D837E8364
S1130B208F839C8B0E94EB0D9B01AC01C301B2012E
S1130B300E94CB0C688B798B8A8B9B8B2B2D3C2D45
S1130B404D2D5E2D6F2D702F812F9885A0E00E9472
S1130B5057100CF075C041E060E081E00E94130C76
S1130B6040E061E081E00E94130C40E062E081E03B
S1130B700E94130C40E063E081E00E94130C40E00B
S1130B8064E081E00E94130C41E065E081E00E9492
S1130B90130C40E066E081E00E94130C41E062E047
S1130BA081E00E94130C8FE19EE40197F1F700C0ED
S1130BB0000040E062E081E00E94130C8FE19EE4BB
S1130BC00197F1F700C0000041E063E081E00E947A
S1130BD0130C41E064E081E00E94130C40E065E006
S1130BE081E00E94130C41E066E081E00E94130C56
S1130BF041E062E081E00E94130C8FE19EE40197E2
S1130C00F1F700C0000040E062E081E00E94130CB4
S1130C108FE19EE40197F1F700C000002B2D3C2DDD
S1130C204D2D5E2D6F2D702F812F98850E94EE0F14
S1130C3029833A834B835C836D837E838F839C8B70
S1130C400F2EFAE02F2EF02D912C812C712C612C7B
S1130C50512C412C312C91E0988733C0222D392D11
S1130C60482D572D662D752D842D932D01E00E945E
S1130C703510622E732E842E952EB62FA72FF82FA3
S1130C80E92F02E00E943510A22EB32EC42ED52ED9
S1130C90E62EF72E082F192F262D372D482D592DE6
S1130CA06B2F7A2F8F2F9E2F0E944E10222E932E61
S1130CB0842E752E662E572E482E392E88858F5FEA
S1130CC08887A22CB92CC82CD72CE62CF52C042D03
S1130CD0132D29813A814B815C816D817E818F81C5
S1130CE09C890E94600FA0E00E94571009F0B6CFC3
S1130CF098859D8B288699868A867B866C865D86F8
S1130D004E863F86B9C00F2EFAE0AF2EF02DB12CDF
S1130D10C12CD12CE12CF12C00E010E02885398580
S1130D204A855B856C857D858E859F850E94600FD5
S1130D309D8B288739874A875B876C877D878E8759
S1130D409F87A22EB32EC42ED52EE62EF72E082F63
S1130D50192F29813A814B815C816D817E818F813C
S1130D609C890E94600F10E3120F41E060E081E073
S1130D700E94130C40E061E081E00E94130C40E00B
S1130D8062E081E00E94130C412F441F4427441F5A
S1130D9063E081E00E94130C16FB442740F964E0F1
S1130DA081E00E94130C15FB442740F965E081E0C3
S1130DB00E94130C14FB442740F966E081E00E9472
S1130DC0130C41E062E081E00E94130C8FE19EE489
S1130DD00197F1F700C0000040E062E081E00E946A
S1130DE0130C8FE19EE40197F1F700C0000013FBA0
S1130DF0442740F963E081E00E94130C12FB44276E
S1130E0040F964E081E00E94130C11FB442740F98F
S1130E1065E081E00E94130C412F417066E081E09F
S1130E200E94130C41E062E081E00E94130C8FE108
S1130E309EE40197F1F700C0000040E062E081E029
S1130E400E94130C8FE19EE40197F1F700C00000AB
S1130E501D8929813A814B815C816D817E818F81DD
S1130E609C890E945E0F29833A834B835C836D8344
S1130E707E838F839C8B2D8A2D882A949D89911142
S1130E8042CF41E060E081E00E94130C40E061E069
S1130E9081E00E94130C40E062E081E00E94130CA8
S1130EA040E063E081E00E94130C40E064E081E0F4
S1130EB00E94130C41E065E081E00E94130C40E0C5
S1130EC066E081E00E94130C41E062E081E00E9450
S1130ED0130C8FE19EE40197F1F700C0000040E09D
S1130EE062E081E00E94130C8FE19EE40197F1F728
S1130EF000C0000041E063E081E00E94130C41E087
S1130F0064E081E00E94130C41E065E081E00E940E
S1130F10130C40E066E081E00E94130C41E062E0C3
S1130F2081E00E94130C8FE19EE40197F1F700C069
S1130F30000040E062E081E00E94130C8FE19EE437
S1130F400197F1F700C000001982688979898A89BC
S1130F509B8909C020E030E040E251E40E94F10E98
S1130F6029812F5F298329812430A0F3688B798B11
S1130F708A8B9B8B0E94AF0DC22ED32EE42EF52EAE
S1130F80062F172F89879887422E39834A835B83DC
S1130F906C837D838E839F83A0E00E9457100CF0A6
S1130FA077C041E060E081E00E94130C40E061E022
S1130FB081E00E94130C40E062E081E00E94130C87
S1130FC040E063E081E00E94130C40E064E081E0D3
S1130FD00E94130C41E065E081E00E94130C40E0A4
S1130FE066E081E00E94130C41E062E081E00E942F
S1130FF0130C8FE19EE40197F1F700C0000040E07C
S113100062E081E00E94130C8FE19EE40197F1F706
S113101000C0000041E063E081E00E94130C41E065
S113102064E081E00E94130C40E065E081E00E94EE
S1131030130C41E066E081E00E94130C41E062E0A1
S113104081E00E94130C8FE19EE40197F1F700C048
S1131050000040E062E081E00E94130C888B8FE185
S11310609EE40197F1F700C000002C2D3D2D4E2D7C
S11310705F2D602F712F898598850E94EE0F422E77
S113108039834A835B836C837D838E839F8302C011
S113109091E0988B0F2EFAE02F2EF02D312C1A862A
S11310A0912C812C712C612C512C21E0288733C088
S11310B0222D332D4A85592D682D772D862D952D7A
S11310C001E00E943510722E832E942E5987B62F7C
S11310D0A72FF82FE92F02E00E943510A22EB32E7D
S11310E0C42ED52EE62EF72E082F192F272D382D96
S11310F0492D59856B2F7A2F8F2F9E2F0E944E10CA
S1131100222E332E4A87952E862E772E682E592E20
S113111098859F5F9887A22CB32CCA84D92CE82C7D
S1131120F72C062D152D242D39814A815B816C8184
S11311307D818E819F810E94600FA0E00E945710E4
S113114009F0B6CF28852C8B288639869B868C8619
S11311507D866E865F86242CBEC00F2EFAE0AF2EED
S1131160F02DB12CC12CD12CE12CF12C00E010E09D
S1131170288539854A855B856C857D858E859F8527
S11311800E94600F7D8B8C8B392E288739874A8784
S11311905B876C877D878E879F87A22EB32EC42E94
S11311A0D52EE62EF72E082F192F222D39814A81AC
S11311B05B816C817D818E819F810E94600F10E331
S11311C0120F41E060E081E00E94130C40E061E016
S11311D081E00E94130C40E062E081E00E94130C65
S11311E0412F441F4427441F63E081E00E94130CF5
S11311F016FB442740F964E081E00E94130C15FBC0
S1131200442740F965E081E00E94130C14FB442755
S113121040F966E081E00E94130C41E062E081E065
S11312200E94130C8FE19EE40197F1F700C00000C7
S113123040E062E081E00E94130C8FE19EE401979C
S1131240F1F700C0000013FB442740F963E081E09C
S11312500E94130C12FB442740F964E081E00E94D1
S1131260130C11FB442740F965E081E00E94130C44
S1131270412F417066E081E00E94130C41E062E07E
S113128081E00E94130C8FE19EE40197F1F700C006
S1131290000040E062E081E00E94130C888B8FE143
S11312A09EE40197F1F700C00000FD880C89132D1E
S11312B0222D39814A815B816C817D818E819F8160
S11312C00E945E0F222E39834A835B836C837D8365
S11312D08E839F834C8A4C884A949C8991113DCF7C
S11312E0888965960FB6F894DEBF0FBECDBFDF9137
S11312F0CF911F910F91FF90EF90DF90CF90BF900F
S1131300AF909F908F907F906F905F904F903F90A1
S11313102F900895823050F4603140F490E4899F16
S1131320600D1124862F80680E94400308952F9237
S11313303F924F925F926F927F928F929F92AF9261
S1131340BF92CF92DF92EF92FF920F931F93CF93AE
S1131350DF93CDB7DEB728970FB6F894DEBF0FBE84
S1131360CDBF8C01FC0101900020E9F731977F018A
S1131370E81AF90A18861F822BE22983412C512C82
S113138032014A825B826C827D820DC18F81988595
S11313906C01C00ED11EF601B08020ED2B0D2A3059
S11313A018F520E030E040E251E4C301B2010E94AC
S11313B0F10E2B013C016B2D70E060537109072E77
S11313C0000C880B990B0E94F30D9B01AC01C30127
S11313D0B2010E94CC0C2B013C012F8138852F5F78
S11313E03F4F38872F83DFC03AE2B31619F0EFE29C
S11313F0BE12A5C09C012F5F3F4F38872F83F90190
S1131400E00FF11F80818A3231F08F3221F08D326A
S113141011F08B3219F481E080939C00F601F08185
S1131420FE8305C08F819885019698878F83EF810D
S1131430F885EE15FF056CF5E00FF11F8081803211
S113144089F3C12C812C912C540127C020E030E079
S113145040E251E4C501B4010E94F10E4B015C016C
S11314606D2D70E060537109072E000C880B990BE9
S11314700E94F30D9B01AC01C501B4010E94CC0C88
S11314804B015C0191012F5F3F4F38872F83C39439
S113149004C0C12C812C912C54018F8198858E1508
S11314A09F0594F41C01FC01E00FF11FD0809FE222
S11314B09D1550F4E9E3ED1548F606C02F813885F3
S11314C02F5F3F4F38872F838F8198858E159F0517
S11314D034F4FC01E00FF11F8081803279F39E81A6
S11314E09A3249F4A5019401C301B2010E94F10E9C
S11314F02B013C0158C0C11008C081E080939C00BE
S113150050E040E030E82FE370C020E030E0A90173
S1131510C501B4010E94380D811108C081E0809397
S11315209D0050E040E030E82FE35FC0A501940146
S1131530C301B2010E943D0D2B013C0134C0FC01EA
S11315403196F887EF83E00FF11F80818A3231F002
S11315508F3221F08D3211F08B3219F481E08093B7
S11315609C00F981FB3269F4A30192016A817B81B9
S11315708C819D810E94CC0C6A837B838C839D83A8
S11315800CC0A30192016A817B818C819D810E94A0
S1131590CB0C6A837B838C839D83F601F081F98372
S11315A0412C512C32018F8198858E159F050CF4A6
S11315B0EDCE99819B3269F4A30192016A817B810A
S11315C08C819D810E94CC0C562F472F382F292FB8
S11315D00CC0A30192016A817B818C819D810E9450
S11315E0CB0C562F472F382F292F652F742F832F7D
S11315F0922F28960FB6F894DEBF0FBECDBFDF91B1
S1131600CF911F910F91FF90EF90DF90CF90BF90FB
S1131610AF909F908F907F906F905F904F903F908E
S11316202F900895CF93DF93CDB7DEB7C556D10978
S11316300FB6F894DEBF0FBECDBF0E944E0180E608
S113164090E00E94490010E000E0BE016F5F7F4F10
S113165080E690E00E94A7008981882309F190ED3B
S1131660980F9A3040F08B3231F08D3221F08A326B
S113167011F08F32A9F4013021F481E00E9440037B
S113168000E0133648F4E2E0F0E0EC0FFD1FE10F58
S1131690F11D898180831F5F89810E94F003D5CF6A
S11316A08D3309F040C0E2E0F0E0EC0FFD1FE10FE4
S11316B0F11D1082CE0102960E9497096B017C01F4
S11316C080919D00813059F461E082E00E948A0992
S11316D080E890E00E94670410929D001AC08091F7
S11316E09C00813059F461E082E00E948A098FE80D
S11316F090E00E94670410929C000BC061E082E0BD
S11317000E948A098DE30E94F003C701B6010E947A
S1131710F304FE01329684E6DF011D928A95E9F70F
S113172010E001E092CF833409F08FCFFE013296AE
S113173084E6DF011D928A95E9F781E00E94400367
S113174010E083CF843008F068C0683008F067C0C8
S11317508130F1F030F0823091F1833009F446C0E9
S113176060C02AB381E090E0062E02C0880F991F62
S11317700A94E2F7809582238ABB8AB350E002C0C0
S1131780440F551F6A95E2F7482B4ABB80E0089541
S113179027B381E090E0062E02C0880F991F0A94B7
S11317A0E2F78095822387BB87B350E002C0440FE1
S11317B0551F6A95E2F7482B47BB80E0089524B390
S11317C081E090E0062E02C0880F991F0A94E2F788
S11317D08095822384BB84B350E002C0440F551F1C
S11317E06A95E2F7482B44BB80E0089521B381E079
S11317F090E0062E02C0880F991F0A94E2F78095A4
S1131800822381BB81B350E002C0440F551F6A9507
S1131810E2F7482B41BB80E0089583E0089584E01B
S1131820089580E00895843008F068C0683008F0B6
S113183067C08130F1F030F0823091F1833009F4E7
S113184046C060C02BB381E090E0062E02C0880F32
S1131850991F0A94E2F7809582238BBB8BB350E0E7
S113186002C0440F551F6A95E2F7482B4BBB80E03A
S1131870089528B381E090E0062E02C0880F991FD6
S11318800A94E2F78095822388BB88B350E002C0B3
S1131890440F551F6A95E2F7482B48BB80E0089532
S11318A025B381E090E0062E02C0880F991F0A94A8
S11318B0E2F78095822385BB85B350E002C0440FD4
S11318C0551F6A95E2F7482B45BB80E0089522B383
S11318D081E090E0062E02C0880F991F0A94E2F777
S11318E08095822382BB82B350E002C0440F551F0F
S11318F06A95E2F7482B42BB80E0089583E008959F
S113190084E0089580E008958430E8F56830E8F5CF
S113191041155105E1F1813091F028F08230D9F080
S1131920833029F136C089B390E002C0959587953C
S11319306A95E2F78170FA01808380E0089586B3A6
S113194090E002C0959587956A95E2F78170FA0157
S1131950808380E0089583B390E002C095958795D5
S11319606A95E2F78170FA01808380E0089580B37C
S113197090E002C0959587956A95E2F78170FA0127
S1131980808380E0089583E0089584E0089582E0F0
S1131990089580E008955058BB27AA270E94E30CBD
S11319A00C94B70E0E94A90E38F00E94B00E20F0DD
S11319B039F49F3F19F426F40C94960E0EF4E09536
S11319C0E7FB0C94900EE92F0E94C80E58F3BA1747
S11319D0620773078407950720F079F4A6F50C9441
S11319E0EA0E0EF4E0950B2EBA2FA02D0B01B901CF
S11319F090010C01CA01A0011124FF27591B99F081
S1131A00593F50F4503E68F11A16F040A22F232F8C
S1131A10342F4427585FF3CF469537952795A795DC
S1131A20F0405395C9F77EF41F16BA0B620B730B83
S1131A30840BBAF09150A1F0FF0FBB1F661F771FF4
S1131A40881FC2F70EC0BA0F621F731F841F48F4A9
S1131A50879577956795B795F7959E3F08F0B0CF32
S1131A609395880F08F09927EE0F97958795089519
S1131A700E946C0E08F481E008950E94510D0C94AC
S1131A80B70E0E94B00E58F00E94A90E40F029F43F
S1131A905F3F29F00C94900E51110C94EB0E0C94B2
S1131AA0960E0E94C80E68F39923B1F3552391F35F
S1131AB0951B550BBB27AA2762177307840738F0B9
S1131AC09F5F5F4F220F331F441FAA1FA9F335D016
S1131AD00E2E3AF0E0E832D091505040E695001CCA
S1131AE0CAF72BD0FE2F29D0660F771F881FBB1F84
S1131AF0261737074807AB07B0E809F0BB0B802D62
S1131B00BF01FF2793585F4F3AF09E3F510578F08D
S1131B100C94900E0C94EB0E5F3FE4F3983ED4F3D8
S1131B20869577956795B795F7959F5FC9F7880F61
S1131B30911D9695879597F90895E1E0660F771FB3
S1131B40881FBB1F621773078407BA0720F0621B44
S1131B50730B840BBA0BEE1F88F7E0950895BEE370
S1131B6004D008F490E80895BFE322273327A9019D
S1131B700E94D00E60F19F5748F1B91740F1BFE3BE
S1131B80B91B9927B8503AF4660F771F881F991F1D
S1131B90B395D2F316C0B8504AF0232F342F452FF3
S1131BA0562F672F782F8827B850BAF7B85F49F0B7
S1131BB08695779567955795479537952795BA955F
S1131BC0B9F716F40E94990E88940895889460E0F9
S1131BD070E0CB01089597FB16F40E94990E0C94C3
S1131BE02F0EE89409C097FB3EF49095809570956C
S1131BF061957F4F8F4F9F4F9923A9F0F92F96E955
S1131C00BB279395F695879577956795B795F111C9
S1131C10F8CFFAF4BB0F11F460FF1BC06F5F7F4F66
S1131C208F4F9F4F16C0882311F096E911C0772378
S1131C3021F09EE8872F762F05C0662371F096E881
S1131C40862F70E060E02AF09A95660F771F881F50
S1131C50DAF7880F9695879597F90895E894F92F00
S1131C6096EBFF2381F0121613061406440B93958A
S1131C70F69587957795679557954040FF23B9F773
S1131C801BC099270895882351F49850D2F7872BC5
S1131C90762F652F542F432F322F20E0B1F31216E5
S1131CA013061406440B88233AF09A95440F551FE3
S1131CB0661F771F881FCAF755234AF4440F551F20
S1131CC011F460FF04C06F5F7F4F8F4F9F4F880FE9
S1131CD09695879597F90895990F0008550FAA0BC3
S1131CE0E0E8FEEF16161706E807F907C0F012162B
S1131CF01306E407F50798F0621B730B840B950B2E
S1131D0039F40A2661F0232B242B252B21F4089582
S1131D100A2609F4A140A6958FEF811D811D08951F
S1131D2097F99F6780E870E060E008959FEF80EC8A
S1131D30089590958095709560955095409530954F
S1131D4021953F4F4F4F5F4F6F4F7F4F8F4F9F4FA7
S1131D50089500240A94161617061806090608950D
S1131D6000240A9412161306140605060895092E73
S1131D700394000C11F4882352F0BB0F40F4BF2BE2
S1131D8011F460FF04C06F5F7F4F8F4F9F4F089522
S1131D9057FD9058440F551F59F05F3F71F0479518
S1131DA0880F97FB991F61F09F3F79F087950895FD
S1131DB0121613061406551FF2CF4695F1DF08C01C
S1131DC0161617061806991FF1CF86957105610539
S1131DD008940895E894BB2766277727CB0197F9E1
S1131DE008950E94040F0C94B70E0E94A90E38F0B7
S1131DF00E94B00E20F0952311F00C94900E0C94D8
S1131E00960E11240C94EB0E0E94C80E70F3959F4D
S1131E10C1F3950F50E0551F629FF001729FBB27DD
S1131E20F00DB11D639FAA27F00DB11DAA1F649F79
S1131E306627B00DA11D661F829F2227B00DA11D2C
S1131E40621F739FB00DA11D621F839FA00D611DB2
S1131E50221F749F3327A00D611D231F849F600DD3
S1131E60211D822F762F6A2F11249F5750409AF0FC
S1131E70F1F088234AF0EE0FFF1FBB1F661F771F88
S1131E80881F91505040A9F79E3F510580F00C9453
S1131E90900E0C94EB0E5F3FE4F3983ED4F38695DA
S1131EA077956795B795F795E7959F5FC1F7FE2BF3
S1131EB0880F911D9695879597F90895689401C0A8
S1131EC0E894F92FF12B12F00C94920FA0E0B0E0FB
S1131ED0ECE6FFE00C940410092E059422F40E9411
S1131EE0EE0F112392F4F0E80F26FFEFE094F09444
S1131EF000951095B094C094D094A194BF0ACF0AD1
S1131F00DF0AEF0AFF0A0F0B1F0B0E949D0F07FC4D
S1131F100E94EE0FCDB7DEB7ECE00C94201068946D
S1131F2001C0E8948F929F92CF93DF930E949D0FFC
S1131F30DF91CF919F908F90089588249924F40184
S1131F40E401B0E49F93AA279A158B049C04ED0541
S1131F50FE05CF05D007A10798F4AD2FDC2FCF2FB6
S1131F60FE2FE92D982C892E982F872F762F652FF9
S1131F70542F432F322F2227B85031F7BF9127C057
S1131F801B2EBF91BB27220F331F441F551F661FF3
S1131F90771F881F991F881C991CEE1FFF1FCC1FD9
S1131FA0DD1FAA1FBB1F8A149B04EC05FD05CE058B
S1131FB0DF05A007B10748F08A189B08EC09FD0962
S1131FC0CE09DF09A00BB10B21601A94E1F62EF4BF
S1131FD09401AF01BE01CD01000C08956095709588
S1131FE08095909530954095509521953F4F4F4F52
S1131FF05F4F6F4F7F4F8F4F9F4F08952F923F92A8
S11320004F925F926F927F928F929F92AF92BF9204
S1132010CF92DF92EF92FF920F931F93CF93DF93B0
S1132020CDB7DEB7CA1BDB0B0FB6F894DEBF0FBE0D
S1132030CDBF09942A88398848885F846E847D845A
S11320408C849B84AA84B984C884DF80EE80FD805C
S11320500C811B81AA81B981CE0FD11D0FB6F894D2
S1132060DEBF0FBECDBFED0108950F93083090F091
S1132070982F872F762F652F542F432F322F222707
S11320800850F4CF220F331F441F551F661F771FBC
S1132090881F991F0A95B2F70F9108952A0D3B1DC9
S11320A04C1D5D1D6E1D7F1D801F911F0895002412
S11320B0A7FD00942A1730054005500560057005FA
S10D20C0800590050895F894FFCF01
S11320CA00000001000200030004000500060007E6
S11320DA3738392F3435362A3132332D63303D2B94
S11320EA6572726F722064697620627920300053B7
S10F20FA796E746178206572726F720058
S9030000FC
