S013000041737369676E6D656E74322E73726563C6
S11300000C942A000C9434000C9434000C943400A6
S11300100C9434000C9434000C9434000C9434008C
S11300200C9434000C9434000C9434000C9434007C
S11300300C9434000C9434000C9434000C9434006C
S11300400C9434000C9434000C9434000C9434005C
S11300500C94340011241FBECFE5D8E0DEBFCDBF21
S11300600E9436000C9480000C9400000E943B0017
S113007080E090E008958AB38E7F8ABB8AB38D7F37
S11300808ABB8AB380628ABB8BB380628BBB8AB320
S113009080648ABB8BB380648BBB20E030E0C901F1
S11300A0C89B16C02FE73BE848E021503040404051
S11300B0E1F700C0000001968A3091053CF42BB3AF
S11300C02F7D2BBB2BB320622BBB02C089E090E0B9
S11300D0C99BE6CF2FE73BE848E021503040404041
S11300E0E1F700C000009C012150310980E090E05C
S11300F0BAF28BB38F7B8BBB8BB380648BBBCFCFBC
S1070100F894FFCF9D
S9030000FC
